:020000041008E2
:1000000000000828A9E90810A9F70810633A0810A9
:10001000ADF70810B1F70810B5F7081000000000A0
:1000200000000000000000000000000071F3081054
:10003000B9F7081000000000B139081099EB08105A
:1000400043E3081069E308108FE30810B5E30810D4
:10005000DBE3081001E4081027E408104DE4081061
:10006000BDF70810C1F70810C5F70810C9F7081048
:10007000CDF70810D1F70810D5F70810D9F70810F8
:100080001CB5DFF86C4894F8241000291AD0C0B2CF
:10009000002803D002208DF8000002E000208DF837
:1000A00000006B4601222068C17B6068007801F087
:1000B0000BFE002802D05FF0FF302DE09DF800001D
:1000C000607428E0A17A002902D15FF0FF3023E0BC
:1000D0000100C9B2002904D0617C002901D00020B0
:1000E0001AE0C0B2002803D001208DF8000002E021
:1000F00000208DF800006B4601222068C17B6068FB
:10010000007801F0E1FD002802D05FF0FF3003E04D
:100110009DF800006074002016BD3EB580208DF86B
:100120000000DFF8CC476B4601222068817C6068C4
:10013000007801F0C9FD002802D05FF0FF30CAE06E
:10014000642001F0ABFF00208DF800006B46012217
:100150002068817C6068007801F0B6FD002802D03C
:100160005FF0FF30B7E06B4606222068817D606853
:10017000007801F0DDFD002802D05FF0FF30AAE03A
:1001800068469DF80520920012F00402C1784900EB
:1001900011F002010A43417811F0010111430800F6
:1001A000C0B2002815D00800C0B2012802D1012039
:1001B000E07436E00800C0B2022802D10020E074EA
:1001C0002FE0C9B2DFF8D80802F09BFA5FF0FF30E9
:1001D00081E06B4601222068C1786068007801F0F8
:1001E000A7FD002802D05FF0FF3074E09DF800000A
:1001F00010F00F000100C9B2002906D1DFF8A408F1
:1002000002F07FFA5FF0FF3065E0C0B2042806D14B
:10021000DFF8940802F075FA0120E07401E0002094
:10022000E074FF20A07220726072E0724FF6FF71DE
:10023000E1812074A07401202073012084F8220041
:10024000002084F8230000206075002020750C2118
:10025000002214F11605280002F09CFA002084F810
:100260002400002084F825000020E0844FF4FA6088
:1002700000F0A3F9002802D05FF0FF302BE002204D
:1002800000F001FA002802D05FF0FF3023E02A20BE
:1002900000F060FA002802D05FF0FF301BE032204F
:1002A00000F0B1FA002802D05FF0FF3013E0002028
:1002B00000F04CFB002802D05FF0FF300BE0002084
:1002C00000F05EFC002802D05FF0FF3003E0002069
:1002D00000F077FB00203EBD1CB504002000C0B23A
:1002E000292802DB5FF0FF306AE02000C0B200285E
:1002F0001BD1002000F0ECFC00208DF8000007204E
:100300008DF80100DFF8E8456B4602222068817C09
:100310006068007801F0D8FC002802D05FF0FF3060
:100320004EE00020207500204AE0012000F0D0FCC3
:1003300020208DF800002000C0B2012806D1002046
:100340008DF80100052000F005FA1AE02000C0B287
:10035000062806DA01208DF80100052000F0FAF9E0
:100360000FE0E4B2152C06DA02208DF801000A2015
:1003700000F0F0F905E003208DF80100142000F0F2
:10038000E9F968464178890151F007014170DFF8C9
:1003900060456B4602222068817C6068007801F02D
:1003A00093FC002802D05FF0FF3009E00820A07223
:1003B0000020207301202075002000F0C7FA0020E3
:1003C00016BD1CB5DFF8E446A07A002802D15FF024
:1003D000FF30D3E000208DF800006B46012220683A
:1003E000C17B6068007801F06FFC002802D05FF0EC
:1003F000FF30C3E06B4601222068417960680078D5
:1004000001F062FC002802D05FF0FF30B6E06B46DE
:100410000122206801796068007801F055FC00280D
:1004200002D05FF0FF30A9E094F82400002852D0F9
:100430000C208DF800006B4601222068017960686D
:10044000007801F041FC002802D05FF0FF3095E019
:100450000A2001F023FEC0208DF80000A07AC0071A
:1004600005D59DF8000050F020008DF800006B4687
:100470000122206801796068007801F025FC0028DD
:1004800002D05FF0FF3079E0607C002803D00220CA
:100490008DF8000002E000208DF800006B4601227C
:1004A0002068C17B6068007801F00EFC002802D053
:1004B0005FF0FF3062E000208DF800006B46012203
:1004C000206841796068007801F0FEFB002854D074
:1004D0005FF0FF3052E004208DF800006B460122EF
:1004E000206801796068007801F0EEFB002802D0F6
:1004F0005FF0FF3042E0A07C002802D1A07AC00764
:1005000003D440208DF8000002E060208DF8000048
:100510006B460122206801796068007801F0D4FB05
:10052000002802D05FF0FF3028E0322001F0B6FD55
:10053000607C002803D001208DF8000002E000203C
:100540008DF800006B4601222068C17B606800784E
:1005500001F0BAFB002802D05FF0FF300EE014F18A
:1005600010030122206841796068007801F0ACFB3B
:10057000002802D05FF0FF3000E0002016BDDFF859
:100580002C15097A002905D002290AD005D30329A0
:100590000BD00EE0FA2101800DE04FF4FA710180DA
:1005A00009E04FF47A71018005E04FF4FA610180AF
:1005B00001E000210180002070471CB5DFF8EC4409
:1005C000A17A002902D15FF0FF303AE080B2FA2828
:1005D00009D0B0F5FA7F12D0B0F57A7F13D0B0F51C
:1005E000FA6F14D017E000208DF80000207A9DF8F3
:1005F0000010C9B2B0EBD10F10D1002021E00820CB
:100600008DF80000F2E710208DF80000EEE71820CA
:100610008DF80000EAE75FF0FF3012E06B46012240
:10062000206881796068007801F04EFB002802D0D4
:100630005FF0FF3005E09DF80000C0B2C0082072F6
:10064000002016BDDFF864144A7A002A05D0022A79
:1006500010D00CD3032A10D012E002220270C97C01
:10066000002902D00178490001700020704704225F
:100670000270F4E708220270F1E710220270EEE740
:100680005FF0FF30F2E71CB5DFF82044A17A0029C3
:1006900002D15FF0FF3037E0C0B2022806D0042854
:1006A00010D0082812D0102814D017E000208DF8A0
:1006B0000000607A9DF80010C9B2B0EBD10F10D1E4
:1006C000002021E008208DF80000F2E710208DF8CE
:1006D0000000EEE718208DF80000EAE75FF0FF3039
:1006E00012E06B4601222068C1796068007801F051
:1006F000EBFA002802D05FF0FF3005E09DF8000023
:10070000C0B2C0086072002016BDDFF8A013C97A1D
:10071000012909D01AD303290CD008D305290FD0F9
:100720000BD306290FD011E0BC21018010E062211B
:1007300001800DE02A2101800AE01421018007E0F8
:100740000A21018004E00521018001E000210180EF
:10075000002070471CB5DFF85443A17A002902D16C
:100760005FF0FF3041E0010089B2BC2903DB0120CA
:100770008DF8000021E0010089B2622903DB02202C
:100780008DF8000019E0010089B22A2903DB03205B
:100790008DF8000011E0010089B2142903DB042068
:1007A0008DF8000009E080B20A2803DB05208DF8EF
:1007B000000002E006208DF80000E07A9DF80010AD
:1007C000884201D1002010E06B4601222068817828
:1007D0006068007801F078FA002802D05FF0FF30FE
:1007E00003E09DF80000E072002016BDDFF8BC2297
:1007F00092F82410002902D05FF0FF3002E0D18986
:1008000001800020704738B50500394CA07A0028D7
:1008100002D15FF0FF304BE094F82400002802D0B2
:100820005FF0FF3044E0207D002810D0280080B227
:10083000002809D0280080B2292805DA2800C0B293
:10084000FFF74AFD002033E00020FFF745FD2800B8
:1008500080B2042801DA042507E0280080B240F2C3
:10086000E931884201DB4FF47A754FF47A70ADB20A
:1008700090FBF5F0401E8DF800006B4601222068C9
:1008800041786068007801F01FFA002802D05FF01C
:10089000FF300DE04FF47A709DF80010491C90FB7A
:1008A000F1F0E081E08980B24008FFF753FF0020BB
:1008B00032BD0F49097A002905D002290CD007D38F
:1008C00003290DD010E0DFF81417016000207047F5
:1008D000DFF810170160F9E7DFF80C170160F5E7A2
:1008E000DFF808170160F1E75FF0FF30EFE7000085
:1008F000F0060228DFF8B4114A7A002A05D0022A4D
:1009000013D00ED3032A14D017E04FF48042028094
:10091000C97C002903D0018889B2490801800020E0
:10092000704741F69C720280F2E74FF480520280D9
:10093000EEE74FF400620280EAE75FF0FF30EFE796
:10094000DFF86811097C017000207047F8B50400D9
:10095000002014F0FE04DFF8545195F8240000281C
:1009600001D000202CE0A87A002802D15FF0FF30EF
:1009700026E02E7CA87A20402874287C2100C9B269
:10098000884202D05FF0FF3700E000272000C0B2AD
:10099000002802D1287D002803D00120FFF770FB3A
:1009A00002E00020FFF76CFBE4B2002C07D0FFF759
:1009B00008FD002803D02E745FF0FF3000E03800FF
:1009C000F2BD38B5040014F0700F03D001208DF88B
:1009D00000000AE02000C0B2002803D000208DF8FB
:1009E000000002E040208DF80000DFF8C0506B46A8
:1009F00001222868817C6868007801F065F9002888
:100A000004D00020A8725FF0FF3048E09DF800009D
:100A100010F0BF00287300208DF80000600605D498
:100A20009DF8000050F004008DF80000A00605D4E9
:100A30009DF8000050F002008DF80000E00605D49B
:100A40009DF8000050F001008DF80000200705D44B
:100A50009DF8000050F038008DF800006B46012230
:100A60002868C17C6868007801F02EF9002804D05D
:100A70000020A8725FF0FF3011E02000C0B2002813
:100A800006D02000C0B2082802D0002000F020F9D3
:100A9000AC7200202875322001F000FB002032BD2E
:100AA0008CF1081064ED081064F20810F0060228BA
:100AB0002DE9FC4104000D001600DFF8107D97F8C9
:100AC0002400002802D15FF0FF3057E0B87A0028F8
:100AD00002D15FF0FF3051E06B4602223868817A24
:100AE0007868007801F024F9002802D05FF0FF3028
:100AF00044E09DF800009DF8018058EA0028404637
:100B0000210080B289B2884204D2002030705FF0A8
:100B1000FF3033E07868408880B24008414689B2AF
:100B2000884215D26B4601223868417C786800788B
:100B300001F0FEF8002802D05FF0FF301EE09DF8C3
:100B40000000C00604D5FFF73CFC7FF0010015E073
:100B50002B002200D2B23868C17A7868007801F0A0
:100B6000E7F8002802D05FF0FF3007E01FFA88F8AE
:100B7000A4B298FBF4F0401E30700020BDE8F6816E
:100B800038B50400DFF8445CA87C2100C9B2884273
:100B900001D100209BE02000C0B2002846D06B4667
:100BA0000122286801796868007801F0C1F80028FE
:100BB00002D05FF0FF308AE09DF8000010F0DF0007
:100BC0008DF800006B46012228680179686800787A
:100BD00001F07AF8002802D05FF0FF3077E00320C0
:100BE00001F05CFA02208DF8000095F82200002840
:100BF00005D09DF8000050F080008DF8000095F8B9
:100C00002300002805D09DF8000050F030008DF83A
:100C100000006B4601222868017D6868007801F0B9
:100C200053F8002851D05FF0FF3050E06B460122AE
:100C3000286801796868007801F07AF8002802D005
:100C40005FF0FF3043E0A87AC00706D59DF80000AA
:100C500050F020008DF8000005E09DF8000010F035
:100C6000DF008DF800006B46012228680179686872
:100C7000007801F029F8002802D05FF0FF3026E06C
:100C8000032001F00BFA95F82200002803D0802001
:100C90008DF8000002E000208DF8000095F8230098
:100CA000002805D09DF8000050F030008DF80000BD
:100CB0006B4601222868017D6868007801F004F81D
:100CC000002802D05FF0FF3001E0AC74002032BD9C
:100CD00038B50400DFF8F45A95F823002100C9B2B2
:100CE000884201D100202DE02000C0B2002803D0AE
:100CF00030208DF8000002E000208DF80000A87C74
:100D0000002805D09DF8000050F002008DF800008A
:100D100095F82200002805D09DF8000050F08000D2
:100D20008DF800006B4601222868017D6868007814
:100D300000F0CAFF002802D05FF0FF3002E085F823
:100D40002340002032BD00001CB504006B46042285
:100D50000D21DFF8780A4068007800F0E9FF0028EC
:100D600001D0072057E06A469DF80010C9B2C908B3
:100D700011F01C01D078C0F3011001438DF804106C
:100D800001A95378DBB2DB0813F01C03D078C0F361
:100D9000810003434B709078C0B2C00810F01C0073
:100DA000D27812F003021043887000221CE0100079
:100DB000C0B204EB800090ED000ADFED850A20EE62
:100DC000200A1000C0B204EB800080ED000A100081
:100DD000C0B2085C401E1300DBB2C8541000C0B2A1
:100DE000085C0028E3D1521C1000C0B2032811DABD
:100DF0001000C0B2085C002805D11000C0B200236A
:100E000044F82030EFE71000C0B2DFF8C43944F8EE
:100E10002030DCE7002016BDFEB504000D000027E1
:100E20006846FFF791FF00264DE0DFF8A809D0EDF6
:100E3000070AB4EE600AF1EE10FA06D4D0ED080A03
:100E4000F4EE400AF1EE10FA3CD50120B040074321
:100E500038E054F8260055F82610401A01F0CDFC71
:100E600000EE100AB8EEC00ADFED5A0A80EE200A42
:100E7000684600EB8601D1ED000AF5EE400AF1EE7E
:100E800010FAD2D000EB8600D0ED000A80EE200AE6
:100E9000FFEE000A30EE200ABDEEC00A10EE100A86
:100EA00001F0AFFC00EE100AB8EEC00ADFF824092A
:100EB000D0ED090AF4EE400AF1EE10FA02D5012055
:100EC000B0400743761C032EC3DB3800FEBD000094
:100ED0002DE9FC4104000D0000266B4603220D2184
:100EE000DFF8E8084068007800F022FF002801D011
:100EF00007206AE09DF8000010F01F008DF8000048
:100F00006F46787810F01F007870B87810F01F00E6
:100F1000B8705FF0000836E0DFF8B80890ED040A1A
:100F2000F4EE400AF1EE10FA06D490ED050AB4EEA4
:100F3000600AF1EE10FA24D5012010FA08F00643F9
:100F40001FE09FED251A20EE010A17F80800401E49
:100F500007F8080017F808000028F2D180EE800A90
:100F6000FFEE000A30EE200AD1ED060AB0EEC00A0C
:100F7000F4EE400AF1EE10FA03D5012010FA08F061
:100F8000064318F10108B8F1030F1DDA54F82800E0
:100F900055F82810401A01F030FC00EE100AB8EEA7
:100FA000C00ADFED0C0AC0EE200A17F8080000287E
:100FB000B2D0DFF8201891ED000AB8EE400A9FED9C
:100FC000081A81EE000AC0E73000BDE8F681000093
:100FD0001D5A843F0000804754E3853F00000343CF
:100FE00000B04C4500008342333303423333834126
:100FF0002DE9F84787B005000E00140001208DF898
:101000000000E846002088F80100DFF8C0976B4632
:101010000222D9F80000817CD9F80400007800F0A1
:1010200053FE002802D05FF0FF3006E2C82001F036
:1010300035F800208DF800006B460122D9F8000039
:10104000C17BD9F80400007800F03EFE002802D0F1
:101050005FF0FF30F1E16B460122D9F800004179E1
:10106000D9F80400007800F02FFE002802D05FF0CD
:10107000FF30E2E16B460122D9F80000817CD9F80B
:101080000400007800F020FE002802D05FF0FF305E
:10109000D3E16B460122D9F80000C17DD9F80400E4
:1010A000007800F011FE002802D05FF0FF30C4E1AC
:1010B0006B460122D9F800000179D9F804000078C4
:1010C00000F002FE002802D05FF0FF30B5E10C20F6
:1010D0008DF800006B460122D9F800000179D9F89B
:1010E0000400007800F0F0FD002802D05FF0FF302F
:1010F000A3E10F2000F0D2FFD9F82800407A8DF844
:1011000000006B460122D9F800008178D9F804006C
:10111000007800F0D9FD002802D05FF0FF308CE1AC
:10112000D9F82800007A8DF800006B460122D9F822
:1011300000004178D9F80400007800F0C5FD0028CF
:1011400002D05FF0FF3078E12000C0B2002807D065
:10115000D9F82800807A50F0E0008DF8000004E013
:10116000D9F82800807A8DF800006B460122D9F862
:1011700000008179D9F80400007800F0A5FD00286E
:1011800002D05FF0FF3058E12000C0B2002807D045
:10119000D9F82800C07A50F0E0008DF8000004E093
:1011A000DFF83006C07A8DF800006B460122D9F8CE
:1011B0000000C179D9F80400007800F085FD00280E
:1011C00002D05FF0FF3038E1E4B2002C02D0C8203A
:1011D00000F064FF40208DF800006B460122D9F832
:1011E00000000179D9F80400007800F06DFD0028B6
:1011F00002D05FF0FF3020E178208DF800006B46D0
:101200000122D9F800004179D9F80400007800F0F3
:101210005BFD002802D05FF0FF300EE1DFF8B4750F
:10122000B88900F03BFF00208DF800006B460122DA
:10123000D9F800004179D9F80400007800F044FDA5
:10124000002802D05FF0FF30F7E06B460222D9F8A9
:101250000000817AD9F80400007800F069FD0028C8
:1012600002D05FF0FF30E8E09DF8001098F8010030
:1012700050EA012080B20C2190FBF1F40020A8601C
:10128000686028600020B060706030605FF0000A25
:101290004FE09DF8000098F8011051EA0021ADF8E8
:1012A000141005A898F802109DF8032052EA0122B4
:1012B000428098F8041098F8052052EA01228280B2
:1012C0003168BDF9142001FA82F131607168B0F91A
:1012D000022089187160B168B0F904000818B06084
:1012E00098F8060098F8071051EA0021ADF80C10A4
:1012F00003A898F8081098F8092052EA01224280C1
:1013000098F80A1098F80B2052EA01228280296886
:10131000BDF90C2001FA82F129606968B0F9022058
:1013200089186960A968B0F904000818A8601AF162
:10133000010A50462100C0B2C9B288420ED26B46A3
:101340000C22D9F80000C17AD9F80400007800F026
:10135000EFFC00289DD05FF0FF306EE02868C117D9
:10136000090441EA104100043A68002301F052FAEE
:101370002200D2B2002301F04DFA28606868C1173C
:10138000090441EA104100043A68002301F042FADE
:101390002200D2B2002301F03DFA6860A868C117AC
:1013A000090441EA104100043A68002301F032FACE
:1013B0002200D2B2002301F02DFAA8603068C117D4
:1013C000090441EA104100047A68002301F022FA7E
:1013D0002200D2B2002301F01DFA30607068C117FC
:1013E000090441EA104100047A68002301F012FA6E
:1013F0002200D2B2002301F00DFA7060B068C1176C
:10140000090441EA104100047A68002301F002FA5D
:10141000E4B22200002301F0FDF9B060B0680128B9
:1014200006DBB06800F17F4010F57F00B06003E09C
:10143000B06810F58030B060002008B0BDE8F087DB
:101440002DE9F04788B004000D000226DFF87C7318
:1014500097F82400002805D0002000F073F95FF011
:10146000010801E05FF000080DF10600FFF787F8C2
:101470000DF10100FFF7E6F80DF10200FFF745F965
:1014800001A8FFF7B3F997F80A906846FFF758FAF2
:101490005FF0000A01E01AF1010A3000C0B2824593
:1014A00006DA002229002000FFF7A2FD0028F2D171
:1014B0003000C0B2824501D1002428E05FF0000A6C
:1014C00001E01AF1010A3000C0B2824506DA0122B9
:1014D00002A905A8FFF78CFD0028F2D1F6B2B245AB
:1014E00001D1002413E002A92800FFF795FC0500B4
:1014F00005A92000FFF7ECFC0024C0B2002801D1B0
:1015000054F00104EDB2002D01D154F00204FF208B
:1015100038727872F8724FF6FF71F981B8723874C8
:1015200001203873BDF80600FFF747F89DF8010069
:10153000FFF7A9F8BDF80200FFF70CF9BDF80400A9
:10154000FFF761F94846C0B2FFF73BFA9DF800008B
:10155000FFF7FCF95FFA88F8B8F1000F02D001201C
:1015600000F0F0F8200008B0BDE8F0877CB50E0070
:101570001400002C02D15FF0FF3034E0DFF840555A
:10158000A97A002902D15FF0FF302CE0010089B276
:10159000090A8DF8001069464870686840894978E2
:1015A00011FA86F1884202DA5FF0FF301BE06B46E9
:1015B00002222868017E6868007800F085FB002818
:1015C00002D05FF0FF300EE023003200D2B2286874
:1015D000417D6868007800F077FB002802D05FF05A
:1015E000FF3000E0002076BD7CB50E001400002C1A
:1015F00002D15FF0FF3034E0DFF8C454A97A00294B
:1016000002D15FF0FF302CE0010089B2090A8DF8A9
:1016100000106946487068684089497811FA86F177
:10162000884202DA5FF0FF301BE06B460222286836
:10163000017E6868007800F047FB002802D05FF068
:10164000FF300EE023003200D2B22868417D686886
:10165000007800F06DFB002802D05FF0FF3000E062
:10166000002076BD2DE9F84785B080460C001500B6
:101670001E00DFF84C7497F82500002802D05FF0B8
:10168000FF305CE0002C02D15FF0FF3057E05FF0EC
:10169000000914E001AA514689B2484680B2FFF71A
:1016A000A3FF00282CD1524692B201A9484680B22D
:1016B000204401F0E9F9002825D11AEB0909484630
:1016C000414680B289B2884220D2414689B248461A
:1016D00080B2091A112902DB5FF0100A01E0B8EBB1
:1016E000090A484680B204EB0002514689B24846D6
:1016F00080B2FFF73BFF0028CCD05FF0FF301EE048
:101700005FF0FF301BE07FF0010018E0280080B29E
:10171000000A8DF800008DF801506B4602223868EF
:10172000817E7868007800F0CFFA002802D05FF060
:10173000FF3004E0012087F82500FE84002006B079
:10174000BDE8F0871CB5214C94F824100200D2B2F9
:10175000914201D1002038E0C0B2002822D094F894
:101760002500002802D15FF0FF302EE00020FEF7B8
:1017700087FC0020FFF704FAE08CFFF744F8002014
:101780008DF800006B46012223216068007800F08C
:101790009BFA012084F824000120FEF771FCFEF77B
:1017A00010FE11E00020FEF76BFC207C8DF800009D
:1017B0006B46012223216068007800F085FA002042
:1017C00084F82400FEF7FDFD002016BDF006022877
:1017D0007B14AE3EB4F1081080B588B002A905A80C
:1017E000FFF72EFE032842D101A8FFF762F89DED16
:1017F000050AB8EEC00ADDED010A20EE200ABDEEB2
:10180000C00A8DED050A05A890ED010AB8EEC00AE0
:10181000DDED010A20EE200ABDEEC00A80ED010ACE
:1018200090ED020AB8EEC00ADDED010A20EE200AB2
:10183000BDEEC00A80ED020A05A801F006FA68466E
:10184000FFF758F80299BDF800004143029102A940
:101850004A68BDF8000042434A608A68BDF800004B
:1018600042438A6002A801F086FA002000E00120CD
:1018700009B000BD38B50400200000F00EF80500E6
:10188000E01C00F00AF855EAC005A01D00F005F8BC
:1018900055EA8015280080B232BD90F90010012968
:1018A00001DB00201EE090F90010002901D5042082
:1018B00018E090F90110012901DB012012E090F9F4
:1018C0000110002901D505200CE090F90210012932
:1018D00001DB022006E090F90200002801D5062075
:1018E00000E0072080B27047704780B5002000F00C
:1018F000DDF9FEF712FC002840D17820FFF761F8EF
:10190000002801D001203AE07820FFF71FF80028D6
:1019100001D0022033E00A20FEF775FF002801D035
:1019200003202CE001F0E4F8002801D0042026E098
:101930006448FFF79FFF80B201F0E6F8002801D06D
:1019400005201CE040F2731001F04CFC002801D08F
:10195000062014E00A2001F09BFA002801D007209D
:101960000DE0FFF739FF002801D0082007E0012033
:10197000FFF7E8FE002801D0092000E0002002BDAA
:1019800070B52DED088B8CB004000D001600B7EE7D
:10199000000A9FED490A9FED480A9FED470A02A8F9
:1019A00001900DF10A00009003AB04AA08A90AA84F
:1019B00001F090FD002801D0012078E0BDF90A0077
:1019C000C00573D59DED040AB8EEC00ADFED3B0AF1
:1019D00080EE209A9DED050AB8EEC00ADFED370AC9
:1019E000C0EE209A9DED060AB8EEC00ADFED330A7C
:1019F00080EE20AA9DED070AB8EEC00ADFED2F0A9F
:101A0000C0EE20AA9FED308BB0EE00BAF8EE00BA1F
:101A100029EEAB0A20EE2A0A69EE0B0A00EE8A0ACA
:101A2000B7EEC00A01F06CFE20EE080BB7EEC00B5B
:101A300084ED000A29EEAB0A20EE290A6AEE0B0AB1
:101A400000EECA0AF7EE000A30EE200AB7EEC01A1E
:101A50002AEE0B0A20EE2A0A69EE0B0A00EEA90A0A
:101A6000B7EEC00A01F090FE20EE080BB7EEC00BF7
:101A700085ED000A29EE090A09EEA90A0AEE4A0ACA
:101A80000AEEEA0AB7EEC01A29EE8A0A09EE2A0A15
:101A900020EE0B0AB7EEC00A01F076FE20EE080B2E
:101AA000B7EEC00B86ED000A002000E002200CB06B
:101AB000BDEC088B70BD0000000000000000804EEF
:101AC000F00602281C0702286666666666A64C4079
:101AD000044800880100481E89B20029FAD17047E5
:101AE000000000001208022880B50121792001F0D1
:101AF000A8FE01217A2001F0A4FEFFF7E9FF0021F2
:101B0000792001F09EFEFFF7E3FF00217A2001F02B
:101B100098FEFFF7DDFF01BD80B50021792001F0BF
:101B200090FE00217A2001F08CFEFFF7D1FF012109
:101B30007A2001F086FEFFF7CBFF0121792001F02A
:101B400080FEFFF7C5FF01BD10B5040000217A201B
:101B500001F077FEFFF7BCFFE4B2002C04D00021B7
:101B6000792001F06EFE03E00121792001F069FE89
:101B700001217A2001F065FEFFF7AAFF00217A20FB
:101B800001F05FFEFFF7A4FF10BD80B500217A20B1
:101B900001F057FE04220021792001F085FEFFF7B5
:101BA00097FF01217A2001F04CFEFFF791FF792089
:101BB00001F069FE00280AD003220121792001F0FA
:101BC00073FE00217A2001F03CFE01200BE003228D
:101BD0000121792001F068FE00217A2001F031FE18
:101BE000FFF776FF002002BD38B50400082517E096
:101BF0000021792001F025FE05E02006F8D501211D
:101C0000792001F01EFE6400FFF762FF01217A20B7
:101C100001F017FEFFF75CFF00217A2001F011FEB2
:101C20002800451EC0B20028E7D131BD70B50400C0
:101C3000002600217A2001F004FEFFF749FF012170
:101C4000792001F0FEFD04220021792001F02CFE14
:101C5000002515E0FFF73CFF00217A2001F0F1FD9F
:101C6000FFF736FF01217A2001F0EBFDFFF730FF8F
:101C70007600792001F007FE002800D0761C6D1C4C
:101C80002800C0B20828E5DB03220121792001F0F9
:101C90000BFE00217A2001F0D4FDFFF719FF200090
:101CA000C0B2FFF751FF3000C0B270BD80B5032352
:101CB000012201217A2001F01EFE042301220121CC
:101CC000792001F018FE01BDF8B504000D001600E2
:101CD0001F00FFF709FF64002000C0B2FFF784FF78
:101CE000FFF753FF002803D0FFF716FF01201EE087
:101CF0002800C0B2FFF778FFFFF747FF002400E09D
:101D0000641C20003100C0B2C9B288420CD220004D
:101D1000C0B2385CFFF768FFFFF737FF0028EFD04D
:101D2000FFF7FAFE012002E0FFF7F6FE0020F2BD09
:101D3000F8B504000D0016001F00FFF7D5FE600087
:101D4000C0B2FFF751FFFFF720FF002803D0FFF7D5
:101D5000E3FE012027E02800C0B2FFF745FFFFF7B0
:101D600014FFFFF7C1FE640054F001042000C0B26C
:101D7000FFF73AFFFFF709FF0EE00120FFF756FFDC
:101D8000387007E03000C0B20128F6D10020FFF71C
:101D90004DFF3870761E7F1C3000C0B20028F1D194
:101DA000FFF7BAFE0020F2BD406041680160704755
:101DB0000268516002680A600160486070474268CA
:101DC000116042684A60416008607047416802687B
:101DD000516001684268116040604168016070476D
:101DE00038B5040001F0CEFD0500D4F8A0000028AD
:101DF00003D02000D4F8A0108847280001F0C6FDC9
:101E000031BD38B59F48046801F0BCFD05002000D5
:101E1000FFF7E6FF200001F0ECFE042084F84C0000
:101E200014F15C0001F08BFF200002F05DF9012845
:101E300003D1200002F009F904E014F12C019248CA
:101E4000FFF7B6FF01F086FE280001F09FFD31BDCF
:101E50002DE9FC47050017009846DDF82890DDF8CD
:101E60002CA00C9C0D9E15F12C00FFF79DFFAF637D
:101E7000C5F83C80C5F84090C5F844A06A6C2321A1
:101E8000286C00F09FF9814B286C696C0844021F94
:101E9000E96BA86B02F030F9686385F84E4085F86D
:101EA0004D40002028656E65AE650020A8640020C6
:101EB00085F84C000020C5F8A0000020C5F8A4005B
:101EC00000200190002000902B000FF25D222900DD
:101ED00015F15C0001F01FFF0020BDE8F687F8B5A2
:101EE00084B004000D0016001F002A00012120000C
:101EF00002F080F80D9803909DF8300002900B9846
:101F000001900A9800903B00320029002000FFF762
:101F10009FFF05B0F0BD5B480068704780B590F842
:101F20004E1080F84D10012290F94D108A40026544
:101F3000022180F84C1000F0D9F8FFF7ECFF0028E0
:101F400001D001F007FE002002BD2DE9FF41050090
:101F50000E00170098462900012002F086F80400C0
:101F6000002C01D1002018E0404602F0EDF90028D5
:101F700004D1200002F0A5F800200EE00B99039197
:101F80009DF828100291CDF8048000903B003200AB
:101F900029002000FFF75CFF200004B0BDE8F081BD
:101FA00038B5040094F84C0010F00F00042801D15B
:101FB00000201DE094F84C0010F00F0F02D020001C
:101FC00001F017FE2000FFF70BFF14F15C0001F099
:101FD000B6FE01F0D7FC0500042084F84C0014F193
:101FE0002C012948FFF7E4FE280001F0CFFC002077
:101FF00032BD38B501F0C6FC04002248056895F8EA
:102000004C0010F00F00012817D1E86A296B8842B4
:1020100013D015F12C00FFF7D9FE15F12C011C4847
:1020200095F84D2000EBC200FFF7C9FE200001F03B
:10203000ADFC01F08FFD002003E0200001F0A6FCC4
:10204000002032BD31B501F09DFC05000D4804684B
:10205000200000F029F86A46002114F15C0001F02C
:102060000EFF14F15C0001F080FE280001F08EFCF0
:1020700001F070FDA06C10F1020F01D10020A064EE
:10208000002032BDCC97022838970228031E081082
:102090004492022880B5FFF7D5FF02BD80B502F05B
:1020A00057FAFFF7CFFF02BD38B5040094F84C0093
:1020B00010F00F00012802D05FF0FF3015E001F0B2
:1020C00061FC0500200001F094FD94F84C0010F034
:1020D000F00050F0020084F84C0014F15C0001F0B4
:1020E000B4FE280001F052FC002032BD38B50400D7
:1020F00094F84C0010F00F00022802D05FF0FF307F
:1021000011E001F03FFC050014F12C00FFF75EFE2A
:1021100014F15C0001F099FE280001F037FC20006A
:1021200001F048FD002032BD10B504007FF0010031
:10213000A06414F12C00FFF749FE200001F03AFDE5
:1021400001F008FD10BDF0B4024610689568131840
:10215000506803EB5004C00748BF4D44A3422DD044
:1021600013F8016B16F0030004BF13F8010BC01C39
:1021700031090F2907D113F8011B0F3103E013F8C0
:10218000017B05F8017B401EF9D10029E6D013F848
:10219000010BC6F38106032E08BF13F8016B00EB99
:1021A0000620404228440026B71E8F421EBF10F86A
:1021B000017B05F8017B761CF6D1CFE7F0BC02F17C
:1021C0000C00704710B4040001F0FF01042A1DD375
:1021D00010F00303002B19D1040051EA012353EA44
:1021E000034308E02360241D2360241D2360241D75
:1021F0002360241D103A102AF4D2042A03D323604A
:10220000241D121FF9E701E02170641C13005A1EFF
:10221000002BF9D110BC704710B4002A11D0030074
:102220000C78491C1C705B1CE4B2002C06D0521EBA
:10223000002AF5D105E0002119705B1C521E002A0E
:10224000F9D110BC704780B5DFF8200500F059FACD
:10225000DFF81C0500F055FADFF81805009005239B
:1022600001220321DFF8100500F04BFADFF80C051E
:1022700000F047FA01BD02000A290BD110680A21BB
:10228000B0FBF1F301FB130011680A23B1FBF3F17A
:10229000116005E0107810F00F0011680909116055
:1022A00070470100002007E00A68531C0B600A23F6
:1022B000127803FB002030380A681278303A0A2A74
:1022C000F2D370472DE9F64F87B004000D00139E3E
:1022D000149F019612980090780602D5DFF8A0A40A
:1022E00001E0DFF8A0A4F80601D537F00107F807F0
:1022F00002D55FF0300801E05FF020085FF00009D0
:10230000B80711D50898002805D55FF02D09089861
:102310004042089008E0780702D55FF02B0903E0FF
:10232000380701D55FF020095FF0000B0293089891
:10233000002811D1302003A901F80B001BF1010B7B
:102340000DE0029908A8FFF796FF1AF8000003A90C
:1023500001F80B001BF1010B08980028F1D15E4534
:1023600000DA5E460099891B17F0110F10D148461C
:10237000C0B2002808D0012906DB491E04E0AC42A7
:1023800001D220202070641C0800411E0128F6DACA
:102390004846C0B2002805D0AC4201D284F8009073
:1023A000491E641CF80609D404E0AC4201D284F84A
:1023B0000080641C0800411E0128F6DA3000461E29
:1023C00083450CDAAC4201D230202070641CF5E762
:1023D000AC4203D203A810F80B002070641C5846CE
:1023E000B0F1010B012802DB01980028F0D10800B0
:1023F000411E012805DBAC4201D220202070641C64
:10240000F5E7200009B0BDE8F08F2DE9F64F83B065
:1024100005000C001E002F0005EB0408A84524D27F
:102420005FF0FF38B8EB05041FE03268361D5FEA45
:1024300089700AD509E0C0B26828F6D13268361D25
:1024400092B25FEA897000D512B25FFA89F9CDF8CD
:1024500008900191CDF800A0DBB241463800FFF7AB
:1024600031FF07000498401C04900498007800286D
:1024700000F0388104980078252806D0474502D21C
:102480000498007838707F1CECE75FF0000901E0E9
:1024900059F010090498401C0490049800782D28E5
:1024A000F6D0049800782B2802D159F00409F1E7FE
:1024B00004980078202802D159F00809EAE7049826
:1024C0000078232802D159F02009E3E70498007826
:1024D000302802D159F00109DCE75FF0FF3BDA4612
:1024E0000498007830380A2804D204A8FFF7D9FEEF
:1024F000824610E0049800782A280CD10498401CE9
:102500000490D6F800A0361DBAF1000F03D5DAF119
:10251000000A59F010095946049800782E2818D15D
:102520000498401C04900498007830380A2804D29B
:1025300004A8FFF7B6FE010008E0049800782A28F6
:1025400004D10498401C04903168361D002900D540
:1025500000210020049A1278682A03D0049A127885
:102560006C2A04D104980078049A521C04920A231D
:10257000049A1278252A00F08780582A00F0978064
:10258000632A13D0642A00F09680692A00F09380B1
:102590006F2A00F07F80702A5FD0732A26D0752AB8
:1025A00000F08B80782A00F0848087E05FEAC960C1
:1025B0000AD404E0474501D2202038707F1CBAF1CC
:1025C000010ABAF1010FF5DA3068361D474500D22D
:1025D00038707F1C04E0474501D2202038707F1CF2
:1025E000BAF1010ABAF1010FF5DA3BE73268361D9C
:1025F000002A00D1644A002300E05B1C534502D04E
:10260000D05C0028F9D1012902DB994200DA0B00E5
:102610005FEAC9600AD404E0474501D2202038703F
:102620007F1C5046B0F1010A8342F5DB002006E032
:10263000474501D2117839707F1C521C401C9842CA
:10264000F6DB5046B0F1010A834205DA474501D274
:10265000202038707F1CF4E704E71AF1010F03D142
:102660005FF0080A59F001093268361D5FFA89F9EE
:10267000CDF808900191CDF800A010234146380014
:10268000FFF720FE0700EDE6474501D22520387010
:102690007F1CE7E608230200D2B26C2A7FF4CBAE9F
:1026A0003268361D5FEA89707FF5CFAECDE659F00E
:1026B00040091023EFE759F00209ECE7474501D242
:1026C000252038707F1C04980078002806D04745E4
:1026D00002D20498007838707F1C02E00498401EF3
:1026E0000490BFE6002C07D0474502D20020387086
:1026F00002E0002008F8010C7D1B280005B0BDE8B1
:10270000F08F0EB418B5020003AB204C7F212000DF
:10271000FFF77BFE802800D37F20200001F031FFEF
:1027200011BC5DF810FB002801D100201DE001065E
:1027300005D0174900F0FF00085C401C15E010F4BC
:102740007F4F05D01249C0F30720085C09300CE028
:1027500010F47F0F05D00E49C0F30740085C11301C
:1027600003E00B49000E085C19307047F8F50810BB
:10277000DCF1081004F6081084F2081060F108106B
:1027800018F4081004F40810A4F60810189502288C
:1027900048E7081062F30F2262F31F42401810F05E
:1027A000030308D0C91A1FD3DB0748BF00F8012D67
:1027B00028BF20F8022D130030B4144615461039F6
:1027C00028BF20E93C00FAD8490728BF20E90C00BF
:1027D00048BF40F8042D890028BF20F8022D48BFCB
:1027E00000F8012D30BC7047C91818BF00F8012D42
:1027F000CB0728BF00F8012D7047002848BF404292
:102800007047002848BF404270470268531C03606D
:102810001170704713F0004C03D55B42524263F1D4
:1028200000039CEA210C00F0178010B5644603D326
:102830004942404261F1000100F00EF8640004D307
:102840004942404261F10001244203D55B425242B9
:1028500063F1000310BD0000BBBBE1B1B2F5803FE6
:1028600080F07E80022A1ED98C46B1FBF2F102FB79
:1028700011C31B0443EA1043B3FBF2FC02FB1C33FD
:1028800080B240EA0343B3FBF2F002FB103240EAAD
:102890000C4000237047022A05D98446B0FBF2F0B1
:1028A00002FB10C270474AB105D100F0010249088D
:1028B0005FEA3000704700220023704701F062BEDB
:1028C0000B000200002100207047904271EB030CC6
:1028D000F6D3B3F5803F2FD2F0B5B3FA83F7B1FA50
:1028E00081F4A7F10F0E3D1B5340CEF1200602FAF2
:1028F0000EF2F3415340B5F10F0746D80F3C2C447C
:102900004140C4F12006A040F1414140B1FBF3F643
:1029100003FB1611A2FB0645001BA94102D2761E3D
:102920008018594180EA010221FA0EF362FA0EF290
:1029300000215A403046F0BD30B4B1FBF3FC03FB3C
:102940001C11A2FB0C45001BA94103D2ACF1010CE8
:102950008018594130BC02460B4660460021704742
:10296000B2F1807F65D3F0B5B2FA82F7B1FA81F4A3
:10297000C7F10F063D1B22FA06F307F1110EF241D3
:1029800020355A40B5F10F07B8D94140C4F12006AF
:10299000A040F1414140B1FBF3FC03FB1C11A2FB41
:1029A0000C45001BA94103D2BCF1010C8018594110
:1029B0000F2F12D30F3FC90341EA5041B1FBF3F689
:1029C00003FB1611A2FB0645D4EBC030A94102D28D
:1029D000761E8018594146EACC3C07B34140C7F106
:1029E0002006B840F1414140B1FBF3F603FB16115C
:1029F000A2FB0645001BA94102D2761E8018594150
:102A000080EA010221FA0EF3C7F1200462FA0EF205
:102A10000CFA07F05A402CFA04F13043F0BD80EA7A
:102A2000010221FA0EF3002162FA0EF260465A40CA
:102A3000F0BD8C46B1FBF2F102FB11C31B0243EA6D
:102A40001063B3FBF2FC02FB1C331B024CEA0020B8
:102A500043EA1063B3FBF2FC02FB1C331B024CEA9B
:102A6000002043EA1063B3FBF2FC02FB1C331B02A1
:102A70004CEA002043EA1063B3FBF2FC02FB1C3279
:102A80004CEA0020002370470300002013F0030FDE
:102A900009D0521E22BF13F8010B11F801CBB0EB85
:102AA0000C00F3D0704711F0030F14D1121F22BF96
:102AB00053F8040B51F804CB6045F7D0121D0AD22D
:102AC00000BA9CFA8CFCB0EB0C0038BF6FF0000031
:102AD00088BF01207047521E22BF13F8010B11F866
:102AE00001CBB0EB0C00F6D0521C08BF104670476B
:102AF00080B5C823DFF8D80B0288DFF8D81B40F672
:102B0000F630FEF7AFFD02BDF8B586B0040005A8AB
:102B1000DFF8C41B0A68026004A8DFF8C01B0A685B
:102B2000026003A8DFF8B81B0A68026002A8DFF899
:102B3000B41B0A68026005A8210089B211F00301E4
:102B4000415C8DF8041001AD210089B2C1F3C101CF
:102B5000415C6970210089B2C1F38111405CA870A9
:102B600004A8210089B211F00301415C8DF8001026
:102B70006E46210089B2C1F3C101415C7170210030
:102B800089B2C1F38111405CB07001AA032140F207
:102B90002640FEF7EBFC002802D05FF0FF3052E049
:102BA0006A46032140F22A40FEF7E0FC002802D0EA
:102BB0005FF0FF3047E0032203A901AF380001F0C6
:102BC000E3FC032202A96F46380001F0DDFC600738
:102BD0000BD59DF8040050F001008DF804009DF81D
:102BE000000050F001008DF80000A00607D56878BD
:102BF00050F001006870707850F001007070E005CE
:102C000007D5A87850F00100A870B07850F0010006
:102C1000B07001AA03214FF48860FEF7A7FC0028DA
:102C200002D05FF0FF300EE06A46032140F23140EF
:102C3000FEF79CFC002802D05FF0FF3003E0DFF8D5
:102C4000A80A0481002007B0F0BDF8B584B0DFF811
:102C5000981A0A7A12F0030250F8222001920A7A96
:102C6000520702D5019A5242019201AC0A89C2F37D
:102C7000C10250F8222062600A7A920602D5626888
:102C8000524262600A89C2F3811250F82200A060A9
:102C90000889C00502D5A0684042A060DFF84C2A30
:102CA0000023019EF717A2FB060102FB071103FB9D
:102CB0000611800F40EA8100891701906668F717B6
:102CC000A2FB060102FB071103FB0611800F40EA7D
:102CD000810089176060A068C117A2FB006702FB32
:102CE000017703FB0077B60F46EA8706BF17A66099
:102CF000019800168DF800006D4601980014687068
:102D000001980012A8700198E8706A4604214FF4F7
:102D10007470FEF72BFC002802D05FF0FF3028E033
:102D2000606800168DF800006068001468706068C4
:102D30000012A8706068E8706A4604214FF475704C
:102D4000FEF714FC002802D05FF0FF3011E0A0680D
:102D500000168DF80000A06800146870A0680012CA
:102D6000A870A068E8706A4604214FF47670FEF7F8
:102D7000FDFB05B0F0BD78B587B004006846FDF7EF
:102D8000B9FDBDF800200023DB0343EA5243D20320
:102D9000DFF85409017A11F0030154F8211004916D
:102DA000017A490702D504994942049104AE018988
:102DB000C1F3C10154F821107160017A890602D56E
:102DC0007168494271600189C1F3811154F8211081
:102DD000B1600089C00502D5B0684042B060049C73
:102DE000E517A2FB040102FB051103FB0411800F90
:102DF00040EA8100891704907468E517A2FB04017A
:102E000002FB051103FB0411800F40EA81008917C2
:102E10007060B068C117A2FB004502FB015503FBBF
:102E20000055A40F44EA8504AD17B4600498001659
:102E30008DF80400049800148DF8050001A8049989
:102E4000091281700499C170716809160171716865
:102E500009148DF80910716809128DF80A1071684B
:102E60008DF80B10B16809160172B06800148DF866
:102E70000D00B06800128DF80E00B0688DF80F00DC
:102E800001AA0C214FF42570FEF770FB08B070BD4D
:102E900030B585B0040002A8DFF8541891E82C0082
:102EA00080E82C00200080B2C92802DB5FF0FF30F0
:102EB00026E0C820210089B290FBF1F0401E0100FD
:102EC00089B2090A8DF800108DF801006A460221C6
:102ED00040F21620FEF74AFB002802D05FF0FF30D8
:102EE0000EE002AA0C2140F6C120FEF73FFB0028AD
:102EF00002D05FF0FF3003E0DFF8EC0784810020B0
:102F000005B030BD10B52DED028B82B0040014F079
:102F1000070F05D0080080B240F24162904202DB08
:102F20005FF0FF30AEE089B200EE101AB8EE400A52
:102F3000DFED560A80EE208A6846FDF783FB9DF898
:102F40000000022806D004282DD008283AD01028E6
:102F500047D055E0B0EE480ABEEEC90A10EE100A9E
:102F60009FED4B0A28EE000ABDEEC00A10EE101AC3
:102F7000020092B2120A8DF804208DF805000800B4
:102F800080B2000A8DF806008DF80710E00746D5DC
:102F900001AA02214FF4EA70FEF7E8FA002832D0C5
:102FA0005FF0FF306EE0B0EE480ABEEEE90A10EEC8
:102FB000100A9FED380A28EE000ABDEEC00A10EE96
:102FC000101AD5E7B0EE480ABEEECA0A10EE100A93
:102FD0009FED310A28EE000ABDEEC00A10EE101A6D
:102FE000C6E7B0EE480ABEEEEA0A10EE100A9FED00
:102FF0002B0A28EE000ABDEEC00A10EE101AB7E741
:103000005FF0FF303EE00DF1060202214FF49270B6
:10301000FEF7ACFA002802D05FF0FF3032E0A007E4
:1030200016D501AA02214FF4EC70FEF79FFA002892
:1030300002D05FF0FF3025E00DF1060202214FF4CF
:103040009470FEF793FA002802D05FF0FF3019E089
:10305000600716D501AA02214FF4EE70FEF786FA3A
:10306000002802D05FF0FF300CE00DF106020221D3
:103070004FF49670FEF77AFA002802D05FF0FF3026
:1030800000E0002002B0BDEC028B10BD0000484300
:10309000000040460000C045000040450000C0441C
:1030A00080B500218DF80010C10705D59DF80010EE
:1030B00051F030018DF80010810705D59DF8001002
:1030C00051F00C018DF80010400705D59DF8000067
:1030D00050F003008DF800006A4601214FF4A470FF
:1030E000FEF744FA02BD80B50100C9B2002901D142
:1030F000012004E00100C9B2052900DB0420401EC4
:103100008DF800006A46012140F24F10FEF72EFABA
:1031100002BD80B580B2052190FBF1F0010089B2BB
:10312000090A8DF800108DF801006A4602214FF45B
:10313000EF70FEF71BFA02BD80B580B2052190FB4F
:10314000F1F0010089B2090A8DF800108DF8010034
:103150006A4602214FF4ED70FEF708FA02BD80B511
:103160004FF47A7290FBF2F089B201FB00F1080093
:1031700000168DF80000080000148DF8010008000A
:1031800000128DF802008DF803106A4604214FF4F6
:10319000AE70FEF7EBF902BD80B580B2052190FB61
:1031A000F1F0010089B2090A8DF800108DF80100D4
:1031B0006A4602214FF4AD70FEF7D8F902BD80B522
:1031C00080B2052190FBF1F0010089B2090A8DF867
:1031D00000108DF801006A4602214FF4AC70FEF732
:1031E000C5F902BD3EB5040002208DF800006D4611
:1031F000CA206870E320A8700920E8706A4604219C
:103200006820FEF7B3F9A3208DF80000600606D50C
:10321000C0206870C820A870C220E87005E0A32014
:103220006870A320A870A320E87014F4C07F06D0B3
:10323000C4202871CC206871C620A87105E0A320A5
:103240002871A3206871A320A871A320E871A3208E
:103250002872A32068726A460A2140F6A720FEF76A
:1032600085F9200010F0030F03D020208DF8000016
:1032700002E0D8208DF800006A46012140F6B62011
:10328000FEF774F9A00603D5012000F097F802E0DC
:10329000002000F093F814F4C07F1AD0E00509D59F
:1032A000B2208DF800008B206870B620A8709B209B
:1032B000E87008E0B0208DF8000080206870B4202D
:1032C000A8709020E8706A46042140F6A220FEF71C
:1032D0004DF9E00725D5F8208DF800006A46012158
:1032E0004FF40B60FEF742F9FA210720FFF70AFEC0
:1032F0000720FFF7D5FE0120FFF7F5FE6420FFF75A
:1033000008FF4FF4FA70FFF717FFC821DFF8DC035E
:10331000FFF725FF2820FFF73FFF0A20FFF74FFFA9
:1033200008E0D8208DF800006A4601214FF40B60B8
:10333000FEF71CF9A00703D5D9208DF8000002E0A4
:10334000D8208DF800006A46012140F23D70FEF75A
:103350000DF9600703D5012000F050F802E00020CD
:1033600000F04CF8E00603D5012000F067F802E019
:10337000002000F063F8DFF8705354F00800688113
:10338000FDF71FF80020A873600602D5A87B801DFA
:10339000A87314F4C07F02D0A87B801DA8732000FE
:1033A00010F0140F02D0A87B1030A87314F0030F94
:1033B00002D0A87B001DA87300203EBD10B586B0CA
:1033C000C0B200280CD003A8CA4991E81C0080E8CC
:1033D0001C0003AA09214FF49760FEF7C7F80BE021
:1033E0006846C54991E81C0080E81C006A4609212E
:1033F0004FF49760FEF7BAF806B010BD1CB5C0B226
:1034000000280CD0C0208DF80000C2208DF80100EB
:10341000C4208DF80200C6208DF8030005E00421C9
:103420008B226C462000FFF7B5F96A46042140F66E
:103430009820FEF79BF8FCF7C4FF16BD1CB5C0B280
:1034400000280CD020208DF8000028208DF80100E5
:1034500030208DF8020038208DF8030005E00421AB
:10346000A3226C462000FFF795F96A46042140F636
:103470009E20FEF77BF8FCF7A4FF16BD38B50500CB
:10348000EC7814F0C004E97811F03F016878C007C7
:1034900012D50A00D2B2D208C9B2082091FBF0F3CB
:1034A00000FB1311491C904B1868002804D0C9B2C6
:1034B0001000C0B21A6890476878000708D58A499A
:1034C0004868002804D0E4B2A4092000496888476D
:1034D000002032BD2DE9F0478CB005000E00924669
:1034E0001C00149F159A5FF0000800203880DFF858
:1034F000F891694699F80E0080B2FDF7D9FA0028D4
:1035000002D05FF0FF30DFE099F80A0010F0140FEE
:103510006AD069469DF800004A78120452EA0062B7
:10352000887852EA0022C8780243CAF80020087955
:103530004A79120452EA0062887952EA00229DF820
:1035400007000243CAF80420087A9DF809201204F3
:1035500052EA0062887A52EA00229DF80B00024388
:10356000CAF80820087B9DF80D20120452EA006278
:10357000887B52EA00229DF80F000243CAF80C2013
:1035800018F11008DAF800000014089008A9DAF819
:10359000040000144860DAF8080000148860DAF8C3
:1035A0000C000014C8600898089BD1F804C04A6851
:1035B00002FB0CF203FB00228B68886800FB0322ED
:1035C000CB68C86800FB032212F171424B4882426B
:1035D00006D3FCF7F6FE002038805FF0FF3073E082
:1035E000388850F48070388099F80A0040062BD54E
:1035F00068464146C9B2405C69464246D2B211446F
:10360000497851EA0021318068464146C9B20844F0
:10361000807869464246D2B21144C97851EA002105
:10362000718068464146C9B20844007969464246FD
:10363000D2B21144497951EA0021B18018F106084B
:10364000388850F008003880B9F80A0010F4C07FBC
:103650002BD068464146C9B2405C69464246D2B268
:103660001144497851EA0021298068464146C9B28F
:103670000844807869464246D2B21144C97851EA7A
:103680000021698068464146C9B20844007969460C
:103690004246D2B21144497951EA0021A98018F179
:1036A0000608388850F07000388099F80A0010F049
:1036B000030F05D068465FFA88F84044FFF7DEFE46
:1036C0002000FEF711F900200CB0BDE8F0870000E3
:1036D00006380810487C081088F708108CF7081086
:1036E00090F7081094F708101097022809E3CA020F
:1036F000D4F50810E0F50810ECF508100100000200
:1037000051EC102B9FED1C2B9FED1D3BB0EEC00B21
:10371000C80F31F0004129D0B4EE402BB1F17F5CED
:1037200028BFBCF5401C08BF124214D8F1EE10FAB5
:1037300033EE401B33EE002B22EE011BB1EEC11B1A
:1037400005D580F0040081EE000B00F071BF80EE23
:10375000010B00F06DBF490011F5001F9CBF6FF019
:10376000004120EE101BAFF3008070471242D3D10E
:10377000C00720EE100B7047CE3B7F669EA0E63F51
:10378000000000000000F03F52EC113B51EC10CB68
:10379000B0EEC00BB0EEC11BC80F4900520028BFED
:1037A0000C3011F5001F34BF12F5001F10E0634507
:1037B00072EB010C38BF80F0040013431AD003D21F
:1037C00081EE000B00F034BF80EE010B00F030BF43
:1037D00011F5001F08BF80F0040094BF12F5001F10
:1037E0000CE08A424FF0000312BF00224FF07C52DF
:1037F00042F4700242EC103B00F01ABF6FF000413F
:1038000020EE101B704700040069C84010F0010052
:103810007047012212FA01F181607047012212FA09
:1038200001F14160704710B48900436C0F248C4053
:10383000A34312F00F0212FA01F11943416410BCC4
:10384000704780B5C9B200290ED00100C9B2082264
:1038500091FBF2F302FB1311494AC0B2C010C00140
:103860001044FFF7D6FF0DE00100C9B2082291FB1A
:10387000F2F302FB1311424AC0B2C010C00110445F
:10388000FFF7CCFF01BD80B50100C9B2082291FB52
:10389000F2F302FB13113A4AC0B2C010C001104447
:1038A000FFF7B2FFC0B202BD10B5C9B200290BD1FB
:1038B000D2B2002A02D0022A02D003E00F220BE08B
:1038C0000B2209E00A2207E0D2B2042A01D10C221D
:1038D00000E00E2212F007020100C9B2082391FB9A
:1038E000F3F403FB1411264BC0B2C010C0011844FE
:1038F000FFF799FF10BD2DE9F8418DB004000E00CF
:1039000015001F0034210022E8464046FEF742FF22
:10391000F6B2002E0ED1FFB2002F02D0022F03D03C
:1039200005E00F2001900DE0082001900AE008203A
:10393000019007E0FFB2042F02D10F20019001E0B7
:103940000E2001902000C0B2C0280FD02100C9B2C3
:1039500008206A4691FBF0F300FB1311084823008E
:10396000DBB2DB10DB01184400F079FF2900C9B29B
:103970002000C0B2FFF765FF0EB0BDE8F081000087
:1039800000003140EFF3108072B6704780F310886A
:103990007047444A1368012B04D04FF001031360B1
:1039A000414A1060414A11604148424901607047F4
:1039B000EFF3108272B63B48016851B34FF000013B
:1039C000016039480168A1B1EFF309811EF0100FC1
:1039D00001D121ED108B21E9F00F4FF000041EF012
:1039E000100F01D14FF00104A1F104010C60006837
:1039F00001602E490968096808C9B1E8F00F0BB1E8
:103A0000B1EC108B81F309884EF0100E0BB12EF043
:103A1000100E82F310884EF0040E704723490860A0
:103A2000EFF3148222F0040282F314881E494FF04F
:103A3000000008601B494FF0010008601E481F4944
:103A4000D0F8002041EA02010160194819490160DB
:103A50001B480068006800BF80F3088861B662B642
:103A60007047EFF308801EF0040F01D0EFF30980D8
:103A700020E9F00FA0F10400C0F800E0A0F104007C
:103A8000C0F800E01EF0040F02D080F3098801E0C6
:103A900080F3088800B500F050FB5DF804EB4EF0B1
:103AA000040E70478C970228849702288897022872
:103AB00004ED00E00000001020ED00E00000FF0039
:103AC00008ED00E0406041680160704742681160A5
:103AD00042684A604160086070474168026851600E
:103AE0000168426811604060416801607047016888
:103AF000814201D1012000E00020C0B2704710B522
:103B000000205B490880002405E05A4800EBC4000F
:103B1000FFF7D8FF641C202CF7DB1F2056490870E4
:103B20000020564908600020554908605548FFF7B5
:103B3000C9FF10BD80B552480068FEF7F4FD401E75
:103B40004C4951F830002C384C4908603430FFF7AC
:103B500065FF01BD10B5FFF715FF04004448B0F93B
:103B60000000002822D146480068FEF7DCFD401E18
:103B7000404951F830102C39404B1A68914215D009
:103B80003D4A10701A6819603F480078002808D133
:103B9000343112F13400FFF7FCFE2000FFF7F6FE8F
:103BA00007E0343112F13400FFF7F3FE2000FFF795
:103BB000EDFE10BD38B50400FFF7E4FE050094F8F3
:103BC0004C0010F0F00050F0010084F84C0014F1AB
:103BD0002C01284894F84D2000EBC200FFF776FF37
:103BE00027490A68206D02430A602800FFF7CEFECD
:103BF00031BD38B50400FFF7C5FE050014F12C00F7
:103C0000FFF76BFF1B4894F84D1000EBC100FFF766
:103C10006EFF002804D01A490A68206D82430A60AA
:103C20002800FFF7B3FE31BD80B5FFF7ABFE1049AA
:103C30000A88521C0A80FFF7A9FE01BD80B5FFF774
:103C4000A1FE0B490A88521E0A80B1F90020012A00
:103C50000ADA00220A80FFF799FE08480068002867
:103C600004D0FFF777FF01E0FFF790FE01BD0000F1
:103C7000109802284492022827980228CC970228FC
:103C8000C8970228389702281D980228406041688A
:103C9000016070470268516002680A600160486014
:103CA0007047416802685160016842681160406075
:103CB0004168016070470168814201D1012000E044
:103CC0000020C0B2704738B50400049884F8210081
:103CD00094F8210010F0FE0084F821006163A263D3
:103CE00000202064E363002505E004EBC5002C30D0
:103CF000FFF7CCFF6D1C012DF7DB31BD38B504009B
:103D0000002505E004EBC5002C30FFF7CAFF6D1C51
:103D1000012DF7DB31BDF8B5040015001E00069F2C
:103D20000A000A21200000F065F99DF81C000090AF
:103D30003B00320029002000FFF7C5FFF1BD38B578
:103D40000400FFF71FFE05002000FFF7D7FF94F8DF
:103D5000210010F0FE0084F821002800FFF716FE75
:103D6000200000F072F9002032BDF8B50400FFF722
:103D700009FE05002000FFF7C1FF94F8210010F0B4
:103D8000FE0084F8210000F0C9FBE16B08182064F4
:103D9000814B0093002010E03A6C216C521A7FF0A6
:103DA00000418A422DD2002806D056F82010083152
:103DB0006A4602EB80025160401C00280BD0774815
:103DC0000168491C0160076814F12C010098FFF795
:103DD00061FF022629E06E4656F8201003EBC00270
:103DE00052689142DFD056F8201009682C2202EB6D
:103DF000C002524201EB0207396C226C891A002979
:103E0000CAD156F82010096846F82010E3E770423E
:103E100004EBC00010F134016846724200EB8200EE
:103E20004068FFF737FFBF08761C022E02D217F05A
:103E3000030FECD094F8210050F0010084F8210029
:103E40002800FFF7A3FD0020F2BD38B5040094F868
:103E50002100C00702D45FF0FF300FE0FFF792FDB2
:103E600005002000FFF74AFF94F8210010F0FE0043
:103E700084F821002800FFF789FD002032BD70B5CD
:103E800005000E001400FFF77DFD002E09D0022E64
:103E90000AD003D3042E15D00DD31DE0E96B2160A9
:103EA0001AE02168E96317E095F8211011F0FD018F
:103EB00085F8211010E095F8211051F0020185F8E5
:103EC000211009E095F82110C90702D501212160D0
:103ED00001E000212160FFE7FFF758FD002070BDE1
:103EE0007CB56846FFF7D2FE00F018FB0600FFF72E
:103EF00049FD0400FFE7284D2800FFF7DCFE0028FD
:103F000039D12868B0F12C05286C361A7FF00040B2
:103F1000864230D22800FFF7F1FE95F82100800795
:103F200005D495F8210010F0FE0085F8210015F168
:103F30002C016846FFF7AEFEA86B696B884700F05E
:103F4000EDFA06006846FFF7B6FE0028D3D115F15A
:103F50002C00FFF7A6FE95F8210010F003000328BF
:103F6000C9D195F8210010F0FE0085F82100280045
:103F7000FFF7FBFEBFE72000FFF708FD73BD10B59C
:103F8000002405E0044800EBC400FFF77FFE641C3A
:103F9000002CF7D010BD000070970228E49702288B
:103FA000704700000268516002680A600160486062
:103FB0007047416802685160016842681160406062
:103FC00041680160704710B4002100E0491C0429D9
:103FD0000ADA074A0B01D35C0400E4B2A342F5D12C
:103FE000090102EB010000E0002010BC7047000056
:103FF00028070228F8B504000D001600002028004C
:10400000C0B2FFF7E0FF0700FFF70EFE786802E09E
:10401000B0F124010068391D8842F9D1FFF70EFE86
:1040200055F0800584F82050202231002000FEF752
:10403000F3F8FFF7A7FC050014F12401381DFFF782
:10404000B1FF2800FFF7A2FCF1BD38B50400002045
:1040500084F82000FFF796FC050014F12400FFF718
:10406000A8FF2800FFF792FC31BDF8B505000E004F
:104070002800C0B2FFF7A7FF0700F86800F064F956
:104080000400002C01D100201AE0FA680021200071
:10409000FEF798F884F82050002084F821002022B0
:1040A00031002000FEF7B8F8FFF76CFC050014F1B2
:1040B0002401381DFFF776FF2800FFF767FC20007A
:1040C000F2BD38B50400002084F82000FFF75AFC48
:1040D000050014F12400FFF76CFF2800FFF756FCE1
:1040E000200000F0C7F931BD90F82000000601D58E
:1040F000012000E00020704770B4121DD208D200E9
:10410000443A1400002503E03D4E44F825606D1C40
:10411000112DF9D361620021A1620021E162002129
:10412000216300216163A363E0635FF0807020641A
:1041300000202060100070BC704738B5040014F1F6
:104140002801251D2F4A1068002805D00800116895
:104150008847002800D131BD296C2B48FEF7D1FAE1
:10416000696A2A48FEF7CDFAA96A2948FEF7C9FA12
:10417000E96A2848FEF7C5FA296B2748FEF7C1FA15
:1041800069682648FEF7BDFAA9682548FEF7B9FA1E
:10419000E9682448FEF7B5FA29692348FEF7B1FA21
:1041A00069692248FEF7ADFAA9692148FEF7A9FA24
:1041B000E9692048FEF7A5FA296A1F48FEF7A1FA27
:1041C000696B1E48FEF79DFAA96B1D48FEF799FA28
:1041D000E96B1C48FEF795FA2078400706D5FDF7F5
:1041E0009AFE01001848FEF78CFA02E01748FEF725
:1041F00088FA2078C00602D41548FEF782FAFEE756
:10420000EFBEADDE9097022868F4081078F408102D
:1042100088F4081098F40810A8F40810B8F40810EE
:10422000C8F40810D8F40810E8F40810F8F40810DE
:1042300008F5081018F5081028F5081038F50810CA
:1042400048F5081058F5081044F2081000F308105B
:1042500068F5081010B4DFF89822116843680B4421
:10426000984215D05988002912D1DFF888120968C0
:104270008B420DD0DFF880120C689C4200D10860A0
:10428000596841601168411A14685B682344996059
:10429000116883680B44834210D0598800290DD1DE
:1042A000DFF854120C68844200D10B6041685960F9
:1042B00011685B1A116840680844836010BC70473D
:1042C00038B50A00C11C8908890093089B00192B86
:1042D00035D3B3F118048C4231D3DFF820025B1AD6
:1042E000183B0360DFF80842216021684FF4F55263
:1042F0000A8003680C334B6000238B6000234B80E3
:10430000DFF8F031256849682944196019680A8086
:1043100001211A68518001680C311A6851600068E7
:104320000C301968886000230122DFF8D411DFF80F
:10433000D40100F022FB20686F49086003E001000F
:104340007148FEF7DEF931BDF8B5002801D1002033
:104350008FE0C01C800880000400684F3868A042CD
:1043600001D2002085E00C2C00D20C24654D5FF0BA
:10437000FF31280000F012FB5D495F4A13680868AE
:104380001B1A02E00868184443683868001B83421F
:104390006BD2086800EB030670880028F2D17068C1
:1043A000C01A0C38A042EDD37068C01A0C3814F152
:1043B000180C60452DD3E0180C30D1F800C08444AF
:1043C0004FF4F55EACF800E05FF0000EACF802E0F0
:1043D000D6F804E0CCF804E0CCF808307060012393
:1043E0007380DCF804303F680C37BB4204D00B68A4
:1043F000DCF804703B44986044480368E4180C34CB
:104400000460434B1C680768BC4213D20068186004
:1044100010E0012070803D4B1C6870680419A41BDB
:10442000086804191C603A4804681F68BC4201D23D
:104430001B6803604FF4F5503080106886420ED13F
:1044400004E0086813685B681844106010684088CE
:10445000002804D01068274B1B689842F1D128002F
:1044600000F0D8FA16F10C0003E0280000F0D2FAB0
:104470000020F2BD70B5002838D01D4C216888425C
:1044800003D31C490968884200D32FE0B0F10C0522
:104490001C4E5FF0FF31300000F080FA6888002881
:1044A00003D02888B0F5F55F08D01A48FEF729F93F
:1044B0002B886A8829001848FEF723F900206880B5
:1044C0004FF4F55028800C4801688D4200D20560F9
:1044D0000E490A686868121AAA182068121A0A6037
:1044E0002800FFF7B7FE300000F094FA70BD00001E
:1044F000A4970228A8970228AC970228B097022810
:10450000ACF608102896022810EF0810B49702287D
:10451000B897022838F3081030F108100B480068EB
:10452000704780B509480168491C0160FDF7F3FC3C
:10453000816D491E8165816D002903D1416D8165C1
:10454000FDF757FDFFF7CCFC01BD00008097022866
:10455000002802D55FF0FF3012E04FF47A724FF47A
:104560007A7190FBF1F1514390FBF2F302FB1300DF
:10457000504300F2E7304FF47A7290FBF2F04018AB
:10458000704770477047000062B38B0708D0521E17
:1045900011F8013B00F8013B00F024808B07F6D1B5
:1045A000830740F0208000BF103A07D330B4B1E851
:1045B0003810103AA0E83810F9D230BC530724BFA5
:1045C000B1E80810A0E8081044BF51F8043B40F8D7
:1045D000043BD20724BF31F8022B20F8022B44BF42
:1045E0000B7803707047121F17D35B0009D151F885
:1045F000043B20F8023B1B0C121F20F8023BF6D2B2
:104600000BE051F8043B00F8013B1B0A20F8023B89
:104610001B0C121F00F8013BF3D238BF121D521EB3
:1046200024BF11F8013B00F8013BF8D870470000A7
:1046300021A1B1EC061BB4EE410BF1EE10FA09DB3F
:10464000B1EE424B33EE001B00EE034B84EE010B48
:1046500040F0020030EE10CBB1EC063B2CF0004CE9
:10466000BCF1795F15D320EE001B03EE014B20EE69
:10467000013B04EE015B05EE030BB1EC083B03EEDE
:10468000014B04EE015B05EE016B06EE012B80EEA3
:10469000020B38BF2031400810F0020F18BFB1EEF6
:1046A000400B01EBC00191ED001B30EE010B28BF68
:1046B000B1EE400B7047000057CD9E5E1426D13FEF
:1046C000000000000000F03FAA4C58E87AB6FB3F1B
:1046D000845D57134B57B03FB2934C19ED5EE43FE6
:1046E000BEDE02B90240F83FDE39028FC7C0743F18
:1046F0008AAB1283000CC83F24D7E508B6D8F03F38
:104700000F34580E5895FD3F0000000000000000D7
:1047100066732D3852C1E03F182D4454FB21F93FF8
:1047200066732D3852C1F03F182D4454FB21F93FD8
:1047300066732D3852C10040182D4454FB210940A6
:104740003FD038C6A6F1044030B4614B1818C009F8
:10475000604C14EB001404290DD223681F25C800F7
:104760008540AB43D2B212F01F02C90012FA01F128
:10477000194321600CE0091F63681F25C8008540AC
:10478000AB43D2B212F01F02C9008A401A436260E2
:1047900030BC7047002A04D1012212FA01F14160B5
:1047A00003E0012212FA01F18160704710B4890020
:1047B000436C0F248C40A34312F00F0212FA01F154
:1047C0001943416410BC704710B4836C01248C40C1
:1047D000A34312F0010212FA01F11943816410BCE3
:1047E000704710B4C36C01248C40A34312F0010243
:1047F00012FA01F11943C16410BC704710B44900AA
:104800001031C36C03248C40A34312F0030212FA4C
:1048100001F11943C16410BC70474269012212FAC8
:1048200001F141614069704710B4836901248C40F3
:10483000A34312F0010212FA01F11943816110BC85
:10484000704710B44900036C03248C40A34312F05A
:10485000030212FA01F11943016410BC7047F8B564
:1048600005000E0014000027002D2ED0002C2CD0A7
:10487000226831002800FFF78DFF227A31002800DE
:10488000FFF762FF626931002800FFF79DFFA26910
:1048900031002800FFF7A5FFE26931002800FFF78B
:1048A000ADFF626831002800FFF780FFE268310049
:1048B0002800FFF7C6FF31002800FFF7AEFF22698E
:1048C00031002800FFF7B0FF00E0034F3800F2BDD1
:1048D0000000CFBF0000304001005A004060416836
:1048E000016070474268116042684A604160086038
:1048F00070470168814201D1012000E00020C0B270
:10490000704780B52C30FFF7E9FF002002BD70B57D
:1049100004000D0016002800FDF7C6FBF6B2002EBD
:1049200002D0012E06D01FE015F12C012000FFF768
:10493000D9FF19E0266800E03668A6420CD0B6F12F
:104940002C0095F84D1090F84D209142F4D215F1BD
:104950002C012C30FFF7C6FFA64204D115F12C0123
:104960002000FFF7BFFFFFE7002070BD80B50068A3
:104970002C38FDF7BBFB002002BD70B5040015000C
:104980001E000A0002212000FFF734FB2000FFF781
:10499000B8FFA58684F82160002070BD73B50500BE
:1049A000FEF7F0FF0400A88E002807D0A88E401E56
:1049B000A8862000FEF7EAFF002076BD01980028B7
:1049C00005D12000FEF7E2FF7FF00100F5E7FDF7DB
:1049D000A2FA06000020B06495F82120310015F1FC
:1049E0002C00FFF794FF0198012809DB01AA0021A0
:1049F00016F15C00FFF743FA16F15C00FFF7B5F91A
:104A00002000FEF7C3FFFFF7A5F8B06C0028D3D055
:104A1000B06CD2E770B504000026FEF7B3FF0500C6
:104A200014F12C00FFF765FF00280DD114F12C00C4
:104A3000FFF79CFF01262800FEF7A8FF012E01D1F9
:104A4000FFF788F8002070BDA08E4FF6FF718842F6
:104A500003D0A08E401CA086EDE72800FEF796FF4D
:104A60007FF00200EFE70000022801D3012010E0F0
:104A70000B00DBB2042B01DB01200AE0DFF8283851
:104A800003EB8000C9B2405C824201D3012000E008
:104A900000207047F8B506000F0015001C00022E1C
:104AA00001D301201DE02A003900C9B23000FFF710
:104AB000DBFF012801D1012013E03800C0B200283B
:104AC00012D1B4F5807F0DD2DFF8E00776033044D1
:104AD00000EB850010F58050016864F30F21016040
:104AE0000020F2BD0120FCE7FFB2012F11D1B4F587
:104AF000803F0CD2DFF8B4077603304400EB85002A
:104B000010F5A050016864F317210160E8E7012067
:104B1000E7E70120E5E700B20012C0B27047F8B540
:104B200005000E001700280000B2FFF7F4FF040094
:104B30002000C0B2022801D3012024E03A00310055
:104B4000C9B22000C0B2FFF78FFF012801D10120B8
:104B500019E0DFF858172000C0B2400308442A00CB
:104B6000D2B200EB8200D0F8000CF6B266F3092056
:104B700067F30700E4B264032144EDB201EB850161
:104B8000C1F8000C0020F2BD70B504000D00160045
:104B9000022C01D301201DE032002900C9B22000FF
:104BA000FFF762FF012801D1012013E0DFF8FC16B6
:104BB0006003085850F0004050F0407050F47F00FF
:104BC000EDB265F3092066F30700620388506403C1
:104BD0000859002070BD10B5C0B2002800F0EA806E
:104BE000022800F0EB80C0F0E780042800F0EA80A3
:104BF000C0F0E680062800F0E980C0F0E5800828D3
:104C000000F0E880C0F0E4800A2800F0E780C0F0FF
:104C1000E3800C2800F0E680C0F0E2800E2800F06F
:104C2000E580C0F0E180102800F0E480C0F0E08072
:104C3000122800F0E380C0F0DF80142800F0E2804A
:104C4000C0F0DE80162800F0E180C0F0DD8018287A
:104C500000F0E080C0F0DC801A2800F0DF80C0F0B7
:104C6000DB801C2800F0DE80C0F0DA801E2800F017
:104C7000DD80C0F0D980202800F0DC80C0F0D88032
:104C8000222800F0DB80C0F0D780242800F0DA80F2
:104C9000C0F0D680262800F0D980C0F0D580282822
:104CA00000F0D880C0F0D4802A2800F0D780C0F06F
:104CB000D3802C2800F0D680C0F0D2802E2800F0BF
:104CC000D580C0F0D180302800F0D480C0F0D080F2
:104CD000322800F0D380C0F0CF80342800F0D2809A
:104CE000C0F0CE80362800F0D180C0F0CD803828CA
:104CF00000F0D080C0F0CC803A2800F0CF80C0F027
:104D0000CB803C2800F0CE80C0F0CA803E2800F066
:104D1000CD80C0F0C980402800F0CC80C0F0C880B1
:104D2000422800F0CB80C0F0C780442800F0CA8041
:104D3000C0F0C680462800F0C980C0F0C580482871
:104D400000F0C880C0F0C4804A2800F0C780C0F0DE
:104D5000C3804C2800F0C680C0F0C2804E2800F00E
:104D6000C580C0F0C180502800F0C480C0F0C08071
:104D7000522800F0C380C0F0BF80542800F0C280E9
:104D8000C0F0BE80562800F0C180C0F0BD80582819
:104D900000F0C080C0F0BC805A2800F0BF80C0F096
:104DA000BB805C2800F0BE80C0F0BA805D2800F0B7
:104DB000BB80BBE01924BFE03124BDE01824BBE078
:104DC0003324B9E03524B7E01424B5E03724B3E048
:104DD0001324B1E02024AFE01224ADE02124ABE0A5
:104DE0001124A9E01024A7E02824A5E02924A3E0A9
:104DF0002A24A1E009249FE02B249DE008249BE0C5
:104E00002C2499E0032497E0022495E0392493E0D0
:104E10003B2491E03D248FE001248DE03F248BE092
:104E2000002489E0402487E0412485E0422483E097
:104E3000432481E0BF247FE048247DE049247BE0D7
:104E4000BC2479E0992477E09A2475E0502473E03B
:104E50009B2471E0B6246FE051246DE09C246BE04C
:104E6000B52469E0522467E0A02465E0B42463E03F
:104E7000532461E0B3245FE054245DE0B2245BE09E
:104E8000B12459E0AD2457E0602455E0AE2453E04E
:104E9000612451E0AD244FE062244DE063244BE0F7
:104EA000AB2449E0642447E0AA2445E0652443E0BC
:104EB000A92441E0A8243FE069243DE06B243BE0C5
:104EC0006D2439E06F2437E0A32435E0702433E00B
:104ED000A22431E071242FE0A1242DE097242BE0BF
:104EE000962429E0742427E0952425E0752423E006
:104EF000942421E093241FE092241DE078241BE0F9
:104F0000792419E08C2417E07A2415E08B2413E02F
:104F10007B2411E08A240FE05A240DE059240BE091
:104F2000892409E0582407E0882405E09D22DFF861
:104F30004019002000F033FE2000C0B210BD10B5B3
:104F4000C0B2002800F0EA80022800F0EB80C0F038
:104F5000E780042800F0EA80C0F0E680062800F030
:104F6000E980C0F0E580082800F0E880C0F0E48027
:104F70000A2800F0E780C0F0E3800C2800F0E6800B
:104F8000C0F0E2800E2800F0E580C0F0E18010283B
:104F900000F0E480C0F0E080122800F0E380C0F070
:104FA000DF80142800F0E280C0F0DE80162800F0D8
:104FB000E180C0F0DD80182800F0E080C0F0DC80E7
:104FC0001A2800F0DF80C0F0DB801C2800F0DE80B3
:104FD000C0F0DA801E2800F0DD80C0F0D9802028E3
:104FE00000F0DC80C0F0D880222800F0DB80C0F028
:104FF000D780242800F0DA80C0F0D680262800F080
:10500000D980C0F0D580282800F0D880C0F0D480A6
:105010002A2800F0D780C0F0D3802C2800F0D6805A
:10502000C0F0D2802E2800F0D580C0F0D18030288A
:1050300000F0D480C0F0D080322800F0D380C0F0DF
:10504000CF80342800F0D280C0F0CE80362800F027
:10505000D180C0F0CD80382800F0D080C0F0CC8066
:105060003A2800F0CF80C0F0CB803C2800F0CE8002
:10507000C0F0CA803E2800F0CD80C0F0C980402832
:1050800000F0CC80C0F0C880422800F0CB80C0F097
:10509000C780442800F0CA80C0F0C680462800F0CF
:1050A000C980C0F0C580482800F0C880C0F0C48026
:1050B0004A2800F0C780C0F0C3804C2800F0C680AA
:1050C000C0F0C2804E2800F0C580C0F0C1805028DA
:1050D00000F0C480C0F0C080522800F0C380C0F04F
:1050E000BF80542800F0C280C0F0BE80562800F077
:1050F000C180C0F0BD80582800F0C080C0F0BC80E6
:105100005A2800F0BF80C0F0BB805C2800F0BE8051
:10511000C0F0BA805D2800F0BB80BBE00824C0E08E
:105120000824BEE00824BCE00824BAE00824B8E063
:105130000824B6E00824B4E00824B2E00824B0E073
:105140000824AEE00824ACE00824AAE00824A8E083
:105150000824A6E00824A4E00824A2E00824A0E093
:1051600008249EE008249CE008249AE0082498E0A3
:10517000082496E0082494E0082492E0082490E0B3
:1051800008248EE008248CE008248AE0082488E0C3
:10519000082486E0082484E0082482E0082480E0D3
:1051A00008247EE008247CE008247AE0082478E0E3
:1051B000082476E0082474E0082472E0082470E0F3
:1051C00008246EE008246CE008246AE0082468E003
:1051D000082466E0082464E0082462E0082460E013
:1051E00008245EE008245CE008245AE0162458E015
:1051F000082456E0082454E0082452E0082450E033
:1052000008244EE008244CE008244AE0082448E042
:10521000082446E0082444E0082442E0082440E052
:1052200008243EE008243CE008243AE0082438E062
:10523000082436E0082434E0082432E0082430E072
:1052400008242EE008242CE008242AE0082428E082
:10525000082426E0082424E0082422E0082420E092
:1052600008241EE008241CE008241AE0082418E0A2
:10527000082416E0082414E0082412E0082410E0B2
:1052800008240EE008240CE008240AE0082408E0C2
:10529000082406E04FF48672DFF8D415002000F0F1
:1052A0007EFC2000C0B210BD94F60810000004403F
:1052B00080B5C0B2002800F0EA80022800F0EB8040
:1052C000C0F0E780042800F0EA80C0F0E6800628FD
:1052D00000F0E980C0F0E580082800F0E880C0F028
:1052E000E4800A2800F0E780C0F0E3800C2800F09A
:1052F000E680C0F0E2800E2800F0E580C0F0E1809A
:10530000102800F0E480C0F0E080122800F0E38074
:10531000C0F0DF80142800F0E280C0F0DE801628A4
:1053200000F0E180C0F0DD80182800F0E080C0F0DF
:10533000DC801A2800F0DF80C0F0DB801C2800F041
:10534000DE80C0F0DA801E2800F0DD80C0F0D98059
:10535000202800F0DC80C0F0D880222800F0DB801C
:10536000C0F0D780242800F0DA80C0F0D68026284C
:1053700000F0D980C0F0D580282800F0D880C0F097
:10538000D4802A2800F0D780C0F0D3802C2800F0E9
:10539000D680C0F0D2802E2800F0D580C0F0D18019
:1053A000302800F0D480C0F0D080322800F0D380C4
:1053B000C0F0CF80342800F0D280C0F0CE803628F4
:1053C00000F0D180C0F0CD80382800F0D080C0F04F
:1053D000CC803A2800F0CF80C0F0CB803C2800F091
:1053E000CE80C0F0CA803E2800F0CD80C0F0C980D9
:1053F000402800F0CC80C0F0C880422800F0CB806C
:10540000C0F0C780442800F0CA80C0F0C68046289B
:1054100000F0C980C0F0C580482800F0C880C0F006
:10542000C4804A2800F0C780C0F0C3804C2800F038
:10543000C680C0F0C2804E2800F0C580C0F0C18098
:10544000502800F0C480C0F0C080522800F0C38013
:10545000C0F0BF80542800F0C280C0F0BE80562843
:1054600000F0C180C0F0BD80582800F0C080C0F0BE
:10547000BC805A2800F0BF80C0F0BB805C2800F0E0
:10548000BE80C0F0BA805D2800F0BB80BBE0002089
:10549000C0E00020BEE00120BCE00120BAE0022014
:1054A000B8E00320B6E00320B4E00420B2E004201A
:1054B000B0E00520AEE00520ACE00620AAE0072021
:1054C000A8E00920A6E00A20A4E00B20A2E00B201F
:1054D000A0E00C209EE00C209CE00D209AE00D2026
:1054E00098E00E2096E00F2094E0102092E011202A
:1054F00090E011208EE012208CE012208AE0132030
:1055000088E0142086E0152084E0162082E0162032
:1055100080E018207EE019207CE019207AE01A2033
:1055200078E01B2076E01C2074E01C2072E01C2038
:1055300070E01D206EE01D206CE01D206AE01E2042
:1055400068E01E2066E01E2064E01F2062E01F204D
:1055500060E020205EE020205CE021205AE0222054
:1055600058E0242056E0242054E0252052E0252055
:1055700050E026204EE027204CE027204AE028205B
:1055800048E0282046E0292044E0292042E02A2063
:1055900040E02C203EE02D203CE02E203AE02F2061
:1055A00038E02F2036E0302034E0302032E0312067
:1055B00030E031202EE032202CE033202AE034206D
:1055C00028E0342026E0352024E0352022E0362073
:1055D00020E037201EE038201CE039201AE0392076
:1055E00018E03A2016E03A2014E03B2012E03B207D
:1055F00010E03B200EE03C200CE03C200AE03D2087
:1056000008E03D2006E040F27B129949002000F0BE
:10561000C6FA0020C0B202BD002007E09549C201D1
:105620008A5822F00042C301CA50401C3F28F5DBD3
:10563000704770B504000E00002000202000C0B2AA
:10564000FFF736FE8B4DC0B2C0012844006A80B21D
:1056500006FB00F642F21070B6FBF0F62000C0B276
:10566000FFF726FEC0012844B6B246612000C0B252
:10567000FFF71EFE0100C9B2C9012944096C51F0AF
:105680000101C0B2C0012844016470BD2DE9F041A0
:10569000AAB004000D001600342100221DAF38000E
:1056A000FDF778F80020742100226F463800FDF7DE
:1056B00071F80E201E902000C0B2FFF740FC8DF85C
:1056C0007C002000C0B2FFF786FA07005FF00808F0
:1056D0002000C0B2FFF77FFA1DAA97FBF8F108FB84
:1056E00011773900644BC0B2C010C0011844FFF7F5
:1056F000B6F82000C0B2FFF7DBFD00220121C0B2E6
:1057000010F5937000B2FFF70AFA2000C0B2FFF75D
:10571000CFFDC0B210F5937000B2FFF7FCF909237A
:1057200000220121C0B2FFF7B5F92000C0B2FFF797
:10573000BFFDC0B210F5937000B2FFF7ECF9002284
:105740000121C0B2FFF720FA4C48B0FBF5F1090C7B
:105750004A482A04B0FBF2F302FB1300002800D0F1
:10576000491C022903D200208DF801002FE00329F3
:1057700003D201208DF8010029E0052903D202207F
:105780008DF8010023E0092903D203208DF80100E0
:105790001DE0112903D204208DF8010017E0212912
:1057A00003D205208DF8010011E0412903D2062023
:1057B0008DF801000BE0812903D207208DF801004C
:1057C00005E040F2C9122A49002000F0E8F904205F
:1057D0008DF8000001208DF8100000208DF81100D8
:1057E00003208DF8120003208DF8130000208DF89F
:1057F0000800224901229DF901008240B1FBF2F02C
:10580000B0FBF5F0401E05900598401C06FB00F625
:1058100042F21070B6FBF0F0089002208DF84000C4
:1058200003208DF8680001201B9001208DF82800CE
:105830002000C0B2FFF73CFD0E4D6946C0B2C0016A
:10584000284400F015FA2000C0B2FFF731FDC0B2C5
:10585000C001284400F00CFB2000C0B2FFF728FD77
:10586000C0B2C001284400F008FB2AB0BDE8F081B6
:1058700094F00810000058400000314000127A00F7
:1058800082B000200190002000900020019009E0EB
:105890000098401C00900098B0F5005FF8D3019884
:1058A000401C01900198B0F5805F02D2002000906A
:1058B000F1E702B0704780B50100002000F0C9FC9C
:1058C00001BD2DE9F043ADF5137D070088461600B4
:1058D0001C000020ADF802000020ADF80000002000
:1058E00002900020ADF804000020ADF8060040460C
:1058F00000F0CEFE0290DFF844532888002801D043
:1059000028698047DFF838030078002800F03381E9
:105910002888002800F01181BDF90600411CADF86F
:1059200006103A00010089B20020EB68984747460C
:10593000404600F0ADFE02906888A97990FBF1F036
:10594000ADF804003800471C00780028FAD1002088
:10595000ADF800000EE07F1E38782F2802D038788E
:105960005C2804D1BDF80000401CADF8000002988E
:10597000401E0290BDF80000022802DA02980028BA
:10598000E9D50298002806D47A1CDFF8B81253A88B
:1059900000F09AFE0EE0BDF80000002805D13A00A4
:1059A000A94953A800F090FE04E03A00A54953A885
:1059B00000F08AFE0020ADF8020042E0BDF80010C1
:1059C000BDF80020BDF8023053AF9BB2BDF9040012
:1059D000434313FA82F0385C43AA89B25054BDF8AD
:1059E0000000401CADF80000BDF8000080B2BDF919
:1059F000041088420EDA53A800F04AFEBDF80020D9
:105A0000BDF802309BB2BDF904104B4313FA82F18A
:105A10008842D3D2002043A9BDF800208854BDF9A4
:105A20000600411CADF8061043AAE97911FB00F10C
:105A300089B20020EB689847BDF80200401CADF821
:105A40000200BDF8027053A800F022FEBDF9041058
:105A5000B0FBF1F0401CBFB2874203D20020ADF88A
:105A60000000C1E73200794953A800F02DFEBDF9CE
:105A70000600411CADF8061053AAE97911FB00F1AC
:105A800089B20020EB689847002C74D00020ADF854
:105A9000020041E0BDF80010BDF80020BDF8023062
:105AA0009BB2BDF90400434313FA82F0205C43AA81
:105AB00089B25054BDF80000401CADF80000BDF89C
:105AC000000080B2BDF9041088420EDA200000F018
:105AD000DFFDBDF80020BDF802309BB2BDF9041017
